{
  "contractName": "Election",
  "abi": [
    {
      "inputs": [],
      "stateMutability": "nonpayable",
      "type": "constructor"
    },
    {
      "anonymous": false,
      "inputs": [
        {
          "indexed": true,
          "internalType": "uint256",
          "name": "_candidateId",
          "type": "uint256"
        }
      ],
      "name": "Voted",
      "type": "event"
    },
    {
      "inputs": [],
      "name": "candidatesCount",
      "outputs": [
        {
          "internalType": "uint256",
          "name": "",
          "type": "uint256"
        }
      ],
      "stateMutability": "view",
      "type": "function",
      "constant": true
    },
    {
      "inputs": [],
      "name": "electionState",
      "outputs": [
        {
          "internalType": "enum Election.State",
          "name": "",
          "type": "uint8"
        }
      ],
      "stateMutability": "view",
      "type": "function",
      "constant": true
    },
    {
      "inputs": [],
      "name": "owner",
      "outputs": [
        {
          "internalType": "address",
          "name": "",
          "type": "address"
        }
      ],
      "stateMutability": "view",
      "type": "function",
      "constant": true
    },
    {
      "inputs": [],
      "name": "votersCount",
      "outputs": [
        {
          "internalType": "uint256",
          "name": "",
          "type": "uint256"
        }
      ],
      "stateMutability": "view",
      "type": "function",
      "constant": true
    },
    {
      "inputs": [],
      "name": "startElection",
      "outputs": [],
      "stateMutability": "nonpayable",
      "type": "function"
    },
    {
      "inputs": [],
      "name": "endElection",
      "outputs": [],
      "stateMutability": "nonpayable",
      "type": "function"
    },
    {
      "inputs": [
        {
          "internalType": "string",
          "name": "_name",
          "type": "string"
        }
      ],
      "name": "addCandidate",
      "outputs": [],
      "stateMutability": "nonpayable",
      "type": "function"
    },
    {
      "inputs": [
        {
          "internalType": "address",
          "name": "_current",
          "type": "address"
        }
      ],
      "name": "getRole",
      "outputs": [
        {
          "internalType": "uint256",
          "name": "",
          "type": "uint256"
        }
      ],
      "stateMutability": "view",
      "type": "function",
      "constant": true
    },
    {
      "inputs": [
        {
          "internalType": "uint256",
          "name": "_candidateId",
          "type": "uint256"
        }
      ],
      "name": "vote",
      "outputs": [],
      "stateMutability": "nonpayable",
      "type": "function"
    },
    {
      "inputs": [
        {
          "internalType": "uint256",
          "name": "_candidateId",
          "type": "uint256"
        }
      ],
      "name": "getCandidateDetails",
      "outputs": [
        {
          "internalType": "string",
          "name": "",
          "type": "string"
        },
        {
          "internalType": "uint256",
          "name": "",
          "type": "uint256"
        }
      ],
      "stateMutability": "view",
      "type": "function",
      "constant": true
    }
  ],
  "bytecode": "0x60806040526000600355600060045534801561001a57600080fd5b50336000806101000a81548173ffffffffffffffffffffffffffffffffffffffff021916908373ffffffffffffffffffffffffffffffffffffffff16021790555060008060146101000a81548160ff021916908360028111156100805761007f61008a565b5b02179055506100b9565b7f4e487b7100000000000000000000000000000000000000000000000000000000600052602160045260246000fd5b61109c806100c86000396000f3fe608060405234801561001057600080fd5b506004361061009e5760003560e01c8063462e91ec11610066578063462e91ec1461015c57806359f784681461017857806362d73eb8146101825780638da5cb5b1461018c57806398c07938146101aa5761009e565b80630121b93f146100a35780632280043d146100bf57806327f9fd50146100dd5780632d35a8a21461010e578063442767331461012c575b600080fd5b6100bd60048036038101906100b8919061098e565b6101c8565b005b6100c76103d0565b6040516100d49190610a32565b60405180910390f35b6100f760048036038101906100f2919061098e565b6103e3565b604051610105929190610af5565b60405180910390f35b6101166104f9565b6040516101239190610b25565b60405180910390f35b61014660048036038101906101419190610b9e565b6104ff565b6040516101539190610b25565b60405180910390f35b61017660048036038101906101719190610d00565b610567565b005b6101806106ed565b005b61018a6107b2565b005b610194610877565b6040516101a19190610d58565b60405180910390f35b6101b261089b565b6040516101bf9190610b25565b60405180910390f35b600160028111156101dc576101db6109bb565b5b600060149054906101000a900460ff1660028111156101fe576101fd6109bb565b5b1461023e576040517f08c379a000000000000000000000000000000000000000000000000000000000815260040161023590610dbf565b60405180910390fd5b600260003373ffffffffffffffffffffffffffffffffffffffff1673ffffffffffffffffffffffffffffffffffffffff16815260200190815260200160002060009054906101000a900460ff16156102cb576040517f08c379a00000000000000000000000000000000000000000000000000000000081526004016102c290610e2b565b60405180910390fd5b600081101580156102dd575060035481105b61031c576040517f08c379a000000000000000000000000000000000000000000000000000000000815260040161031390610e97565b60405180910390fd5b60016000828152602001908152602001600020600201600081548092919061034390610ee6565b91905055506001600260003373ffffffffffffffffffffffffffffffffffffffff1673ffffffffffffffffffffffffffffffffffffffff16815260200190815260200160002060006101000a81548160ff021916908315150217905550807f7f511e347bf51eed3be100b3194247d5207f05f3b33de7d31e3e8ee73199a04960405160405180910390a250565b600060149054906101000a900460ff1681565b606060008083101580156103f8575060035483105b610437576040517f08c379a000000000000000000000000000000000000000000000000000000000815260040161042e90610e97565b60405180910390fd5b60016000848152602001908152602001600020600101600160008581526020019081526020016000206002015481805461047090610f5d565b80601f016020809104026020016040519081016040528092919081815260200182805461049c90610f5d565b80156104e95780601f106104be576101008083540402835291602001916104e9565b820191906000526020600020905b8154815290600101906020018083116104cc57829003601f168201915b5050505050915091509150915091565b60035481565b60008173ffffffffffffffffffffffffffffffffffffffff1660008054906101000a900473ffffffffffffffffffffffffffffffffffffffff1673ffffffffffffffffffffffffffffffffffffffff160361055d5760019050610562565b600290505b919050565b3373ffffffffffffffffffffffffffffffffffffffff1660008054906101000a900473ffffffffffffffffffffffffffffffffffffffff1673ffffffffffffffffffffffffffffffffffffffff16146105f5576040517f08c379a00000000000000000000000000000000000000000000000000000000081526004016105ec90610fda565b60405180910390fd5b60006002811115610609576106086109bb565b5b600060149054906101000a900460ff16600281111561062b5761062a6109bb565b5b1461066b576040517f08c379a000000000000000000000000000000000000000000000000000000000815260040161066290611046565b60405180910390fd5b6040518060600160405280600354815260200182815260200160008152506001600060035481526020019081526020016000206000820151816000015560208201518160010190805190602001906106c49291906108a1565b5060408201518160020155905050600360008154809291906106e590610ee6565b919050555050565b60008054906101000a900473ffffffffffffffffffffffffffffffffffffffff1673ffffffffffffffffffffffffffffffffffffffff163373ffffffffffffffffffffffffffffffffffffffff161461074557600080fd5b60016002811115610759576107586109bb565b5b600060149054906101000a900460ff16600281111561077b5761077a6109bb565b5b1461078557600080fd5b6002600060146101000a81548160ff021916908360028111156107ab576107aa6109bb565b5b0217905550565b60008054906101000a900473ffffffffffffffffffffffffffffffffffffffff1673ffffffffffffffffffffffffffffffffffffffff163373ffffffffffffffffffffffffffffffffffffffff161461080a57600080fd5b6000600281111561081e5761081d6109bb565b5b600060149054906101000a900460ff1660028111156108405761083f6109bb565b5b1461084a57600080fd5b6001600060146101000a81548160ff021916908360028111156108705761086f6109bb565b5b0217905550565b60008054906101000a900473ffffffffffffffffffffffffffffffffffffffff1681565b60045481565b8280546108ad90610f5d565b90600052602060002090601f0160209004810192826108cf5760008555610916565b82601f106108e857805160ff1916838001178555610916565b82800160010185558215610916579182015b828111156109155782518255916020019190600101906108fa565b5b5090506109239190610927565b5090565b5b80821115610940576000816000905550600101610928565b5090565b6000604051905090565b600080fd5b600080fd5b6000819050919050565b61096b81610958565b811461097657600080fd5b50565b60008135905061098881610962565b92915050565b6000602082840312156109a4576109a361094e565b5b60006109b284828501610979565b91505092915050565b7f4e487b7100000000000000000000000000000000000000000000000000000000600052602160045260246000fd5b600381106109fb576109fa6109bb565b5b50565b6000819050610a0c826109ea565b919050565b6000610a1c826109fe565b9050919050565b610a2c81610a11565b82525050565b6000602082019050610a476000830184610a23565b92915050565b600081519050919050565b600082825260208201905092915050565b60005b83811015610a87578082015181840152602081019050610a6c565b83811115610a96576000848401525b50505050565b6000601f19601f8301169050919050565b6000610ab882610a4d565b610ac28185610a58565b9350610ad2818560208601610a69565b610adb81610a9c565b840191505092915050565b610aef81610958565b82525050565b60006040820190508181036000830152610b0f8185610aad565b9050610b1e6020830184610ae6565b9392505050565b6000602082019050610b3a6000830184610ae6565b92915050565b600073ffffffffffffffffffffffffffffffffffffffff82169050919050565b6000610b6b82610b40565b9050919050565b610b7b81610b60565b8114610b8657600080fd5b50565b600081359050610b9881610b72565b92915050565b600060208284031215610bb457610bb361094e565b5b6000610bc284828501610b89565b91505092915050565b600080fd5b600080fd5b7f4e487b7100000000000000000000000000000000000000000000000000000000600052604160045260246000fd5b610c0d82610a9c565b810181811067ffffffffffffffff82111715610c2c57610c2b610bd5565b5b80604052505050565b6000610c3f610944565b9050610c4b8282610c04565b919050565b600067ffffffffffffffff821115610c6b57610c6a610bd5565b5b610c7482610a9c565b9050602081019050919050565b82818337600083830152505050565b6000610ca3610c9e84610c50565b610c35565b905082815260208101848484011115610cbf57610cbe610bd0565b5b610cca848285610c81565b509392505050565b600082601f830112610ce757610ce6610bcb565b5b8135610cf7848260208601610c90565b91505092915050565b600060208284031215610d1657610d1561094e565b5b600082013567ffffffffffffffff811115610d3457610d33610953565b5b610d4084828501610cd2565b91505092915050565b610d5281610b60565b82525050565b6000602082019050610d6d6000830184610d49565b92915050565b7f456c656374696f6e206973206e6f7420696e2070726f67726573730000000000600082015250565b6000610da9601b83610a58565b9150610db482610d73565b602082019050919050565b60006020820190508181036000830152610dd881610d9c565b9050919050565b7f596f75206861766520616c726561647920766f74656400000000000000000000600082015250565b6000610e15601683610a58565b9150610e2082610ddf565b602082019050919050565b60006020820190508181036000830152610e4481610e08565b9050919050565b7f496e76616c69642063616e646964617465204944000000000000000000000000600082015250565b6000610e81601483610a58565b9150610e8c82610e4b565b602082019050919050565b60006020820190508181036000830152610eb081610e74565b9050919050565b7f4e487b7100000000000000000000000000000000000000000000000000000000600052601160045260246000fd5b6000610ef182610958565b91507fffffffffffffffffffffffffffffffffffffffffffffffffffffffffffffffff8203610f2357610f22610eb7565b5b600182019050919050565b7f4e487b7100000000000000000000000000000000000000000000000000000000600052602260045260246000fd5b60006002820490506001821680610f7557607f821691505b602082108103610f8857610f87610f2e565b5b50919050565b7f4f6e6c79206f776e65722063616e206164642063616e64696461746573000000600082015250565b6000610fc4601d83610a58565b9150610fcf82610f8e565b602082019050919050565b60006020820190508181036000830152610ff381610fb7565b9050919050565b7f456c656374696f6e2068617320616c7265616479207374617274656400000000600082015250565b6000611030601c83610a58565b915061103b82610ffa565b602082019050919050565b6000602082019050818103600083015261105f81611023565b905091905056fea2646970667358221220b457345bae71a4fa896d4b2d214901ea9ef4687e88c2cee1aae99792784f12b064736f6c634300080d0033",
  "immutableReferences": {},
  "source": "// SPDX-License-Identifier: MIT\npragma solidity ^0.8.0;\n\ncontract Election {\n    enum State {\n        NotStarted,\n        InProgress,\n        Ended\n    }\n\n    struct Candidate {\n        uint256 id;\n        string name;\n        uint256 voteCount;\n    }\n\n    address public owner;\n    State public electionState;\n\n    mapping(uint256 => Candidate) candidates;\n    mapping(address => bool) voted;\n\n    uint256 public candidatesCount = 0;\n\n    uint256 public votersCount = 0;\n\n    constructor() {\n        owner = msg.sender;\n        electionState = State.NotStarted;\n    }\n\n    event Voted(uint256 indexed _candidateId);\n\n    function startElection() public {\n        require(msg.sender == owner);\n        require(electionState == State.NotStarted);\n        electionState = State.InProgress;\n    }\n\n    function endElection() public {\n        require(msg.sender == owner);\n        require(electionState == State.InProgress);\n        electionState = State.Ended;\n    }\n\n    function addCandidate(string memory _name) public {\n        require(owner == msg.sender, \"Only owner can add candidates\");\n        require(\n            electionState == State.NotStarted,\n            \"Election has already started\"\n        );\n\n        candidates[candidatesCount] = Candidate(candidatesCount, _name, 0);\n        candidatesCount++;\n    }\n\n    function getRole(address _current) public view returns (uint256) {\n        if (owner == _current) {\n            return 1;\n        } else {\n            return 2;\n        }\n    }\n\n    function vote(uint256 _candidateId) public {\n        require(\n            electionState == State.InProgress,\n            \"Election is not in progress\"\n        );\n        require(!voted[msg.sender], \"You have already voted\");\n        require(\n            _candidateId >= 0 && _candidateId < candidatesCount,\n            \"Invalid candidate ID\"\n        );\n\n        candidates[_candidateId].voteCount++;\n        voted[msg.sender] = true;\n\n        emit Voted(_candidateId);\n    }\n\n    function getCandidateDetails(\n        uint256 _candidateId\n    ) public view returns (string memory, uint256) {\n        require(\n            _candidateId >= 0 && _candidateId < candidatesCount,\n            \"Invalid candidate ID\"\n        );\n        return (\n            candidates[_candidateId].name,\n            candidates[_candidateId].voteCount\n        );\n    }\n}\n",
  "sourcePath": "/Users/bar-study/study-workspace/BlockchainProject/final-proj/truffle/contracts/Election.sol",
  "compiler": {
    "name": "solc",
    "version": "0.8.13+commit.abaa5c0e.Emscripten.clang"
  },
  "schemaVersion": "3.4.16",
  "updatedAt": "2024-03-27T21:43:42.442Z",
  "networkType": "ethereum",
  "devdoc": {
    "kind": "dev",
    "methods": {},
    "version": 1
  },
  "userdoc": {
    "kind": "user",
    "methods": {},
    "version": 1
  }
}